{
  "address": "0xE6E340D132b5f46d1e472DebcD681B2aBc16e57E",
  "abi": [
    {
      "inputs": [],
      "name": "HEALTH_FACTOR_LIQUIDATION_THRESHOLD",
      "outputs": [
        {
          "internalType": "uint256",
          "name": "",
          "type": "uint256"
        }
      ],
      "stateMutability": "view",
      "type": "function"
    },
    {
      "inputs": [
        {
          "internalType": "address",
          "name": "asset",
          "type": "address"
        },
        {
          "internalType": "uint256",
          "name": "amount",
          "type": "uint256"
        },
        {
          "internalType": "uint256",
          "name": "interestRateMode",
          "type": "uint256"
        }
      ],
      "name": "borrow",
      "outputs": [],
      "stateMutability": "nonpayable",
      "type": "function"
    },
    {
      "inputs": [
        {
          "internalType": "address",
          "name": "asset",
          "type": "address"
        },
        {
          "internalType": "uint256",
          "name": "amount",
          "type": "uint256"
        }
      ],
      "name": "deposit",
      "outputs": [],
      "stateMutability": "nonpayable",
      "type": "function"
    },
    {
      "inputs": [],
      "name": "jitu",
      "outputs": [
        {
          "internalType": "address",
          "name": "",
          "type": "address"
        }
      ],
      "stateMutability": "view",
      "type": "function"
    },
    {
      "inputs": [
        {
          "internalType": "address",
          "name": "_collateralAsset",
          "type": "address"
        },
        {
          "internalType": "address",
          "name": "_debtAsset",
          "type": "address"
        },
        {
          "internalType": "uint256",
          "name": "_debtToCover",
          "type": "uint256"
        },
        {
          "internalType": "bool",
          "name": "_receiveAToken",
          "type": "bool"
        }
      ],
      "name": "preempt",
      "outputs": [],
      "stateMutability": "nonpayable",
      "type": "function"
    },
    {
      "inputs": [],
      "name": "reclaim",
      "outputs": [],
      "stateMutability": "nonpayable",
      "type": "function"
    },
    {
      "inputs": [
        {
          "internalType": "address",
          "name": "asset",
          "type": "address"
        },
        {
          "internalType": "uint256",
          "name": "amount",
          "type": "uint256"
        },
        {
          "internalType": "uint256",
          "name": "rateMode",
          "type": "uint256"
        }
      ],
      "name": "repay",
      "outputs": [
        {
          "internalType": "uint256",
          "name": "",
          "type": "uint256"
        }
      ],
      "stateMutability": "nonpayable",
      "type": "function"
    },
    {
      "inputs": [
        {
          "internalType": "address",
          "name": "_jitu",
          "type": "address"
        }
      ],
      "name": "setJitu",
      "outputs": [],
      "stateMutability": "nonpayable",
      "type": "function"
    },
    {
      "inputs": [
        {
          "internalType": "address",
          "name": "asset",
          "type": "address"
        },
        {
          "internalType": "uint256",
          "name": "amount",
          "type": "uint256"
        }
      ],
      "name": "underwrite",
      "outputs": [],
      "stateMutability": "nonpayable",
      "type": "function"
    },
    {
      "inputs": [
        {
          "internalType": "address",
          "name": "asset",
          "type": "address"
        },
        {
          "internalType": "uint256",
          "name": "amount",
          "type": "uint256"
        },
        {
          "internalType": "address",
          "name": "to",
          "type": "address"
        }
      ],
      "name": "withdraw",
      "outputs": [
        {
          "internalType": "uint256",
          "name": "",
          "type": "uint256"
        }
      ],
      "stateMutability": "nonpayable",
      "type": "function"
    }
  ],
  "transactionHash": "0x1c5f9538aeb873bea7149ab4174c8d042a49ae5acd177eb9a0d4ee2d30dc9f28",
  "args": [],
  "solcInputHash": "827b7253db5c790c396bf3f24ce883a3",
  "bytecode": "0x608060405234801561001057600080fd5b50611bfb806100206000396000f3fe608060405234801561001057600080fd5b506004361061009e5760003560e01c806388180ff61161006657806388180ff6146101835780638cd2e0c7146101af5780639872bad7146101e1578063c1bce0b714610207578063c3525c28146102395761009e565b80633860b6f7146100a357806347e7ef24146100c757806363917c42146100f557806369328dec1461013357806380e9071b1461017b575b600080fd5b6100ab610241565b604080516001600160a01b039092168252519081900360200190f35b6100f3600480360360408110156100dd57600080fd5b506001600160a01b038135169060200135610250565b005b6100f36004803603608081101561010b57600080fd5b506001600160a01b0381358116916020810135909116906040810135906060013515156103dd565b6101696004803603606081101561014957600080fd5b506001600160a01b0381358116916020810135916040909101351661126d565b60408051918252519081900360200190f35b6100f3611309565b6100f36004803603604081101561019957600080fd5b506001600160a01b0381351690602001356113c0565b610169600480360360608110156101c557600080fd5b506001600160a01b038135169060208101359060400135611449565b6100f3600480360360208110156101f757600080fd5b50356001600160a01b03166115c0565b6100f36004803603606081101561021d57600080fd5b506001600160a01b0381351690602081013590604001356115e2565b610169611664565b6000546001600160a01b031681565b604080516323b872dd60e01b81523360048201523060248201526044810183905290516001600160a01b038416916323b872dd9160648083019260209291908290030181600087803b1580156102a557600080fd5b505af11580156102b9573d6000803e3d6000fd5b505050506040513d60208110156102cf57600080fd5b50506040805163095ea7b360e01b8152600080516020611b5b83398151915260048201526024810183905290516001600160a01b0384169163095ea7b39160448083019260209291908290030181600087803b15801561032e57600080fd5b505af1158015610342573d6000803e3d6000fd5b505050506040513d602081101561035857600080fd5b50506040805163e8eda9df60e01b81526001600160a01b0384166004820152602481018390523060448201526000606482018190529151600080516020611b5b8339815191529263e8eda9df926084808201939182900301818387803b1580156103c157600080fd5b505af11580156103d5573d6000803e3d6000fd5b505050505050565b6000546001600160a01b031633146103f457600080fd5b6103fc611a6f565b60408051632fe4a15f60e21b81523060048201529051600080516020611b5b8339815191529163bf92857c9160248083019260c0929190829003018186803b15801561044757600080fd5b505afa15801561045b573d6000803e3d6000fd5b505050506040513d60c081101561047157600080fd5b508051602080830151606090930151604085810191909152848201939093529083528151637f32d67f60e11b81529151600092600080516020611b5b8339815191529263fe65acfe92600480840193829003018186803b1580156104d457600080fd5b505afa1580156104e8573d6000803e3d6000fd5b505050506040513d60208110156104fe57600080fd5b505160408051631f94a27560e31b815290519192506000916001600160a01b0384169163fca513a8916004808301926020929190829003018186803b15801561054657600080fd5b505afa15801561055a573d6000803e3d6000fd5b505050506040513d602081101561057057600080fd5b505190506001600160a01b03811663b3596f0761058b611670565b54604080516001600160e01b031960e085901b1681526001600160a01b039092166004830152516024808301926020929190829003018186803b1580156105d157600080fd5b505afa1580156105e5573d6000803e3d6000fd5b505050506040513d60208110156105fb57600080fd5b505160808401526040805163b3596f0760e01b81526001600160a01b03888116600483015291519183169163b3596f0791602480820192602092909190829003018186803b15801561064c57600080fd5b505afa158015610660573d6000803e3d6000fd5b505050506040513d602081101561067657600080fd5b505160a084015260808301516106989061068e611670565b6001015490611694565b60c084015260a08301516106ad908690611694565b60e084018190526020840151116106f55760405162461bcd60e51b8152600401808060200182810382526025815260200180611b7b6025913960400191505060405180910390fd5b61072c836020015161072685604001516107208760c0015188600001516116f690919063ffffffff16565b90611738565b90611815565b60608401819052670de0b6b3a7640000101561074757611264565b610140830185905260e08301516101a0840152604080516321f8a72160e01b8152600160f81b600482015290516000916001600160a01b038516916321f8a72191602480820192602092909190829003018186803b1580156107a857600080fd5b505afa1580156107bc573d6000803e3d6000fd5b505050506040513d60208110156107d257600080fd5b5051604080516334924edb60e21b81526001600160a01b038a811660048301529151929350839260009283929085169163d2493b6c91602480820192606092909190829003018186803b15801561082857600080fd5b505afa15801561083c573d6000803e3d6000fd5b505050506040513d606081101561085257600080fd5b5060208082015160409283015183516370a0823160e01b8152306004820152935191955093506001600160a01b038516926370a08231926024808301939192829003018186803b1580156108a557600080fd5b505afa1580156108b9573d6000803e3d6000fd5b505050506040513d60208110156108cf57600080fd5b5051610100880152604080516370a0823160e01b815230600482015290516001600160a01b038316916370a08231916024808301926020929190829003018186803b15801561091d57600080fd5b505afa158015610931573d6000803e3d6000fd5b505050506040513d602081101561094757600080fd5b50516101208801526040805163b3596f0760e01b81526001600160a01b038481166004830152915160009288169163b3596f07916024808301926020929190829003018186803b15801561099a57600080fd5b505afa1580156109ae573d6000803e3d6000fd5b505050506040513d60208110156109c457600080fd5b50516040805163b3596f0760e01b81526001600160a01b03858116600483015291519293506000929189169163b3596f0791602480820192602092909190829003018186803b158015610a1657600080fd5b505afa158015610a2a573d6000803e3d6000fd5b505050506040513d6020811015610a4057600080fd5b50516101208a0151909150610a77906113889061072090610a619085611694565b6101008d0151610a719087611694565b90611914565b6101608a018190526101a08a01511115610aaf576101608901516101a08a0181905260a08a0151610aa8919061196e565b6101408a01525b610140890151604080516323b872dd60e01b81523360048201523060248201526044810192909252516001600160a01b038e16916323b872dd9160648083019260209291908290030181600087803b158015610b0a57600080fd5b505af1158015610b1e573d6000803e3d6000fd5b505050506040513d6020811015610b3457600080fd5b50506101408901516040805163095ea7b360e01b8152600080516020611b5b83398151915260048201526024810192909252516001600160a01b038e169163095ea7b39160448083019260209291908290030181600087803b158015610b9957600080fd5b505af1158015610bad573d6000803e3d6000fd5b505050506040513d6020811015610bc357600080fd5b50506101a08901516101208a0151610bdb9083611694565b1115610c83576101408901516040805163573ade8160e01b81526001600160a01b038f16600482015260248101929092526002604483015230606483015251600080516020611b5b8339815191529163573ade819160848083019260209291908290030181600087803b158015610c5157600080fd5b505af1158015610c65573d6000803e3d6000fd5b505050506040513d6020811015610c7b57600080fd5b50610ebb9050565b61012089015115610e1e576000610cb68a60a00151610cb0848d610120015161169490919063ffffffff16565b9061196e565b9050600080516020611b5b8339815191526001600160a01b031663573ade818e836002306040518563ffffffff1660e01b815260040180856001600160a01b03168152602001848152602001838152602001826001600160a01b03168152602001945050505050602060405180830381600087803b158015610d3757600080fd5b505af1158015610d4b573d6000803e3d6000fd5b505050506040513d6020811015610d6157600080fd5b50506101408a0151600080516020611b5b8339815191529063573ade81908f90610d8b90856116f6565b6001306040518563ffffffff1660e01b815260040180856001600160a01b03168152602001848152602001838152602001826001600160a01b03168152602001945050505050602060405180830381600087803b158015610deb57600080fd5b505af1158015610dff573d6000803e3d6000fd5b505050506040513d6020811015610e1557600080fd5b50610ebb915050565b6101408901516040805163573ade8160e01b81526001600160a01b038f16600482015260248101929092526001604483015230606483015251600080516020611b5b8339815191529163573ade819160848083019260209291908290030181600087803b158015610e8e57600080fd5b505af1158015610ea2573d6000803e3d6000fd5b505050506040513d6020811015610eb857600080fd5b50505b610edf8960800151610cb08b60a001518c610140015161169490919063ffffffff16565b6101808a0152610eed611670565b546001600160a01b038e8116911614610f375760405162461bcd60e51b8152600401808060200182810382526026815260200180611ba06026913960400191505060405180910390fd5b6000856001600160a01b031663d2493b6c8f6040518263ffffffff1660e01b815260040180826001600160a01b0316815260200191505060606040518083038186803b158015610f8657600080fd5b505afa158015610f9a573d6000803e3d6000fd5b505050506040513d6060811015610fb057600080fd5b50516040805163b3596f0760e01b81526001600160a01b0380841660048301529151929350908a169163b3596f0791602480820192602092909190829003018186803b158015610fff57600080fd5b505afa158015611013573d6000803e3d6000fd5b505050506040513d602081101561102957600080fd5b50516102008b0181905260a08b01516101408c015161104d9291610cb09190611694565b6102208b0152604080516370a0823160e01b815230600482015290516001600160a01b038316916370a08231916024808301926020929190829003018186803b15801561109957600080fd5b505afa1580156110ad573d6000803e3d6000fd5b505050506040513d60208110156110c357600080fd5b50516101c08b018190526102008b01516110dd9190611694565b6101e08b018190526101a08b0151106111275760405162461bcd60e51b815260040180806020018281038252603f815260200180611b1c603f913960400191505060405180910390fd5b8a156111b4576102208a01516040805163a9059cbb60e01b81523360048201526024810192909252516001600160a01b0383169163a9059cbb9160448083019260209291908290030181600087803b15801561118257600080fd5b505af1158015611196573d6000803e3d6000fd5b505050506040513d60208110156111ac57600080fd5b5061125c9050565b600080516020611b5b8339815191526001600160a01b03166369328dec8f8c6101800151336040518463ffffffff1660e01b815260040180846001600160a01b03168152602001838152602001826001600160a01b031681526020019350505050602060405180830381600087803b15801561122f57600080fd5b505af1158015611243573d6000803e3d6000fd5b505050506040513d602081101561125957600080fd5b50505b505050505050505b50505050505050565b60408051631a4ca37b60e21b81526001600160a01b03858116600483015260248201859052831660448201529051600091600080516020611b5b833981519152916369328dec9160648082019260209290919082900301818787803b1580156112d557600080fd5b505af11580156112e9573d6000803e3d6000fd5b505050506040513d60208110156112ff57600080fd5b5051949350505050565b600080516020611b5b8339815191526369328dec611325611670565b546001600160a01b0316611337611670565b60010154336040518463ffffffff1660e01b815260040180846001600160a01b03168152602001838152602001826001600160a01b031681526020019350505050602060405180830381600087803b15801561139257600080fd5b505af11580156113a6573d6000803e3d6000fd5b505050506040513d60208110156113bc57600080fd5b5050565b816113c9611670565b80546001600160a01b0319166001600160a01b0392909216919091179055806113f0611670565b60010155604080516323b872dd60e01b81523360048201523060248201526044810183905290516001600160a01b038416916323b872dd9160648083019260209291908290030181600087803b1580156102a557600080fd5b604080516323b872dd60e01b81523360048201523060248201526044810184905290516000916001600160a01b038616916323b872dd9160648082019260209290919082900301818787803b1580156114a157600080fd5b505af11580156114b5573d6000803e3d6000fd5b505050506040513d60208110156114cb57600080fd5b50506040805163095ea7b360e01b8152600080516020611b5b83398151915260048201526024810185905290516001600160a01b0386169163095ea7b39160448083019260209291908290030181600087803b15801561152a57600080fd5b505af115801561153e573d6000803e3d6000fd5b505050506040513d602081101561155457600080fd5b50506040805163573ade8160e01b81526001600160a01b038616600482015260248101859052604481018490523060648201529051600080516020611b5b8339815191529163573ade819160848083019260209291908290030181600087803b1580156112d557600080fd5b600080546001600160a01b0319166001600160a01b0392909216919091179055565b6040805163a415bcad60e01b81526001600160a01b038516600482015260248101849052604481018390526000606482018190523060848301529151600080516020611b5b8339815191529263a415bcad9260a4808201939182900301818387803b15801561165057600080fd5b505af1158015611264573d6000803e3d6000fd5b670de0b6b3a764000081565b7f424591aabaf75a7ba1ebe65e14a520a6eaf2e5a781f9e088483fa0ea9626e70690565b6000826116a3575060006116f0565b828202828482816116b057fe5b04146116ed5760405162461bcd60e51b8152600401808060200182810382526021815260200180611afb6021913960400191505060405180910390fd5b90505b92915050565b60006116ed83836040518060400160405280601e81526020017f536166654d6174683a207375627472616374696f6e206f766572666c6f7700008152506119b0565b6000821580611745575081155b15611752575060006116f0565b81611388198161175e57fe5b0483111560405180604001604052806002815260200161068760f31b815250906118065760405162461bcd60e51b81526004018080602001828103825283818151815260200191508051906020019080838360005b838110156117cb5781810151838201526020016117b3565b50505050905090810190601f1680156117f85780820380516001836020036101000a031916815260200191505b509250505060405180910390fd5b50506127109102611388010490565b604080518082019091526002815261035360f41b60208201526000908261187d5760405162461bcd60e51b81526020600482018181528351602484015283519092839260449091019190850190808383600083156117cb5781810151838201526020016117b3565b5060408051808201909152600280825261068760f31b6020830152830490670de0b6b3a76400008219048511156118f55760405162461bcd60e51b81526020600482018181528351602484015283519092839260449091019190850190808383600083156117cb5781810151838201526020016117b3565b508281670de0b6b3a76400008602018161190b57fe5b04949350505050565b6000828201838110156116ed576040805162461bcd60e51b815260206004820152601b60248201527f536166654d6174683a206164646974696f6e206f766572666c6f770000000000604482015290519081900360640190fd5b60006116ed83836040518060400160405280601a81526020017f536166654d6174683a206469766973696f6e206279207a65726f000000000000815250611a0a565b60008184841115611a025760405162461bcd60e51b81526020600482018181528351602484015283519092839260449091019190850190808383600083156117cb5781810151838201526020016117b3565b505050900390565b60008183611a595760405162461bcd60e51b81526020600482018181528351602484015283519092839260449091019190850190808383600083156117cb5781810151838201526020016117b3565b506000838581611a6557fe5b0495945050505050565b604051806102400160405280600081526020016000815260200160008152602001600081526020016000815260200160008152602001600081526020016000815260200160008152602001600081526020016000815260200160008152602001600081526020016000815260200160008152602001600081526020016000815260200160008152509056fe536166654d6174683a206d756c7469706c69636174696f6e206f766572666c6f776e6f7420656e6f75676820636f6c6c61746572616c20616d6f756e7420666f722074686520617373657420796f752077616e7420746f2077697468647261770000000000000000000000007d2768de32b0b80b7a3454c06bdac94a69ddc7a9796f752061726520747279696e6720746f20726570617920746f6f206d7563682064656274636f6c6c61746572616c20616e642062756666657220617265206e6f74207468652073616d65a2646970667358221220b06d7d1c67b5c317727c96d6ce72d0d97d8fb1b71a0c7ea51b53ca611b964db064736f6c63430007040033",
  "devdoc": {
    "kind": "dev",
    "methods": {},
    "version": 1
  },
  "userdoc": {
    "kind": "user",
    "methods": {},
    "version": 1
  },
  "storageLayout": {
    "storage": [
      {
        "astId": 599,
        "contract": "contracts/KAave.sol:KAAVE",
        "label": "jitu",
        "offset": 0,
        "slot": "0",
        "type": "t_address"
      }
    ],
    "types": {
      "t_address": {
        "encoding": "inplace",
        "label": "address",
        "numberOfBytes": "20"
      }
    }
  }
}